{
  "contractName": "SimpleEscrowWithERC1497",
  "abi": [
    {
      "constant": true,
      "inputs": [],
      "name": "payer",
      "outputs": [
        {
          "name": "",
          "type": "address"
        }
      ],
      "payable": false,
      "stateMutability": "view",
      "type": "function"
    },
    {
      "constant": true,
      "inputs": [],
      "name": "status",
      "outputs": [
        {
          "name": "",
          "type": "uint8"
        }
      ],
      "payable": false,
      "stateMutability": "view",
      "type": "function"
    },
    {
      "constant": true,
      "inputs": [],
      "name": "arbitrationFeeDepositPeriod",
      "outputs": [
        {
          "name": "",
          "type": "uint256"
        }
      ],
      "payable": false,
      "stateMutability": "view",
      "type": "function"
    },
    {
      "constant": true,
      "inputs": [],
      "name": "value",
      "outputs": [
        {
          "name": "",
          "type": "uint256"
        }
      ],
      "payable": false,
      "stateMutability": "view",
      "type": "function"
    },
    {
      "constant": true,
      "inputs": [],
      "name": "reclaimedAt",
      "outputs": [
        {
          "name": "",
          "type": "uint256"
        }
      ],
      "payable": false,
      "stateMutability": "view",
      "type": "function"
    },
    {
      "constant": true,
      "inputs": [],
      "name": "arbitrator",
      "outputs": [
        {
          "name": "",
          "type": "address"
        }
      ],
      "payable": false,
      "stateMutability": "view",
      "type": "function"
    },
    {
      "constant": true,
      "inputs": [],
      "name": "reclamationPeriod",
      "outputs": [
        {
          "name": "",
          "type": "uint256"
        }
      ],
      "payable": false,
      "stateMutability": "view",
      "type": "function"
    },
    {
      "constant": true,
      "inputs": [],
      "name": "payee",
      "outputs": [
        {
          "name": "",
          "type": "address"
        }
      ],
      "payable": false,
      "stateMutability": "view",
      "type": "function"
    },
    {
      "constant": true,
      "inputs": [],
      "name": "createdAt",
      "outputs": [
        {
          "name": "",
          "type": "uint256"
        }
      ],
      "payable": false,
      "stateMutability": "view",
      "type": "function"
    },
    {
      "inputs": [
        {
          "name": "_payee",
          "type": "address"
        },
        {
          "name": "_arbitrator",
          "type": "address"
        },
        {
          "name": "_metaevidence",
          "type": "string"
        }
      ],
      "payable": true,
      "stateMutability": "payable",
      "type": "constructor"
    },
    {
      "anonymous": false,
      "inputs": [
        {
          "indexed": true,
          "name": "_metaEvidenceID",
          "type": "uint256"
        },
        {
          "indexed": false,
          "name": "_evidence",
          "type": "string"
        }
      ],
      "name": "MetaEvidence",
      "type": "event"
    },
    {
      "anonymous": false,
      "inputs": [
        {
          "indexed": true,
          "name": "_arbitrator",
          "type": "address"
        },
        {
          "indexed": true,
          "name": "_evidenceGroupID",
          "type": "uint256"
        },
        {
          "indexed": true,
          "name": "_party",
          "type": "address"
        },
        {
          "indexed": false,
          "name": "_evidence",
          "type": "string"
        }
      ],
      "name": "Evidence",
      "type": "event"
    },
    {
      "anonymous": false,
      "inputs": [
        {
          "indexed": true,
          "name": "_arbitrator",
          "type": "address"
        },
        {
          "indexed": true,
          "name": "_disputeID",
          "type": "uint256"
        },
        {
          "indexed": false,
          "name": "_metaEvidenceID",
          "type": "uint256"
        },
        {
          "indexed": false,
          "name": "_evidenceGroupID",
          "type": "uint256"
        }
      ],
      "name": "Dispute",
      "type": "event"
    },
    {
      "anonymous": false,
      "inputs": [
        {
          "indexed": true,
          "name": "_arbitrator",
          "type": "address"
        },
        {
          "indexed": true,
          "name": "_disputeID",
          "type": "uint256"
        },
        {
          "indexed": false,
          "name": "_ruling",
          "type": "uint256"
        }
      ],
      "name": "Ruling",
      "type": "event"
    },
    {
      "constant": false,
      "inputs": [],
      "name": "releaseFunds",
      "outputs": [],
      "payable": false,
      "stateMutability": "nonpayable",
      "type": "function"
    },
    {
      "constant": false,
      "inputs": [],
      "name": "reclaimFunds",
      "outputs": [],
      "payable": true,
      "stateMutability": "payable",
      "type": "function"
    },
    {
      "constant": false,
      "inputs": [],
      "name": "depositArbitrationFeeForPayee",
      "outputs": [],
      "payable": true,
      "stateMutability": "payable",
      "type": "function"
    },
    {
      "constant": false,
      "inputs": [
        {
          "name": "_disputeID",
          "type": "uint256"
        },
        {
          "name": "_ruling",
          "type": "uint256"
        }
      ],
      "name": "rule",
      "outputs": [],
      "payable": false,
      "stateMutability": "nonpayable",
      "type": "function"
    },
    {
      "constant": false,
      "inputs": [
        {
          "name": "_evidence",
          "type": "string"
        }
      ],
      "name": "submitEvidence",
      "outputs": [],
      "payable": false,
      "stateMutability": "nonpayable",
      "type": "function"
    },
    {
      "constant": true,
      "inputs": [],
      "name": "remainingTimeToReclaim",
      "outputs": [
        {
          "name": "",
          "type": "uint256"
        }
      ],
      "payable": false,
      "stateMutability": "view",
      "type": "function"
    },
    {
      "constant": true,
      "inputs": [],
      "name": "remainingTimeToDepositArbitrationFee",
      "outputs": [
        {
          "name": "",
          "type": "uint256"
        }
      ],
      "payable": false,
      "stateMutability": "view",
      "type": "function"
    }
  ],
  "bytecode": "0x6080604052336000806101000a81548173ffffffffffffffffffffffffffffffffffffffff021916908373ffffffffffffffffffffffffffffffffffffffff1602179055506040516117403803806117408339810180604052606081101561006657600080fd5b810190808051906020019092919080519060200190929190805164010000000081111561009257600080fd5b828101905060208101848111156100a857600080fd5b81518560018202830111640100000000821117156100c557600080fd5b50509291905050503460028190555082600160006101000a81548173ffffffffffffffffffffffffffffffffffffffff021916908373ffffffffffffffffffffffffffffffffffffffff16021790555081600360006101000a81548173ffffffffffffffffffffffffffffffffffffffff021916908373ffffffffffffffffffffffffffffffffffffffff1602179055504260048190555060007f61606860eb6c87306811e2695215385101daab53bd6ab4e9f9049aead9363c7d826040518080602001828103825283818151815260200191508051906020019080838360005b838110156101c15780820151818401526020810190506101a6565b50505050905090810190601f1680156101ee5780820380516001836020036101000a031916815260200191505b509250505060405180910390a25050506115338061020d6000396000f3fe6080604052600436106100f35760003560e01c80636cc6cde11161008a578063bac91e2e11610059578063bac91e2e14610373578063cce4bd521461043b578063cf09e0d014610445578063f7e1aafd14610470576100f3565b80636cc6cde114610290578063762b8295146102e7578063ae90b21314610312578063b6844f1314610369576100f3565b8063345a47ea116100c6578063345a47ea146101f85780633fa4f2451461022357806369d895751461024e5780636b0aac7114610265576100f3565b8063123119cd146100f8578063200d2ed21461014f57806322c500a014610188578063311a6c56146101b3575b600080fd5b34801561010457600080fd5b5061010d61049b565b604051808273ffffffffffffffffffffffffffffffffffffffff1673ffffffffffffffffffffffffffffffffffffffff16815260200191505060405180910390f35b34801561015b57600080fd5b506101646104c0565b6040518082600381111561017457fe5b60ff16815260200191505060405180910390f35b34801561019457600080fd5b5061019d6104d3565b6040518082815260200191505060405180910390f35b3480156101bf57600080fd5b506101f6600480360360408110156101d657600080fd5b810190808035906020019092919080359060200190929190505050610576565b005b34801561020457600080fd5b5061020d61082a565b6040518082815260200191505060405180910390f35b34801561022f57600080fd5b5061023861082f565b6040518082815260200191505060405180910390f35b34801561025a57600080fd5b50610263610835565b005b34801561027157600080fd5b5061027a610a02565b6040518082815260200191505060405180910390f35b34801561029c57600080fd5b506102a5610a08565b604051808273ffffffffffffffffffffffffffffffffffffffff1673ffffffffffffffffffffffffffffffffffffffff16815260200191505060405180910390f35b3480156102f357600080fd5b506102fc610a2e565b6040518082815260200191505060405180910390f35b34801561031e57600080fd5b50610327610a33565b604051808273ffffffffffffffffffffffffffffffffffffffff1673ffffffffffffffffffffffffffffffffffffffff16815260200191505060405180910390f35b610371610a59565b005b34801561037f57600080fd5b506104396004803603602081101561039657600080fd5b81019080803590602001906401000000008111156103b357600080fd5b8201836020820111156103c557600080fd5b803590602001918460018302840111640100000000831117156103e757600080fd5b91908080601f016020809104026020016040519081016040528093929190818152602001838380828437600081840152601f19601f820116905080830192505050505050509192919290505050610c4c565b005b610443610e6c565b005b34801561045157600080fd5b5061045a61129a565b6040518082815260200191505060405180910390f35b34801561047c57600080fd5b506104856112a0565b6040518082815260200191505060405180910390f35b6000809054906101000a900473ffffffffffffffffffffffffffffffffffffffff1681565b600660009054906101000a900460ff1681565b60008060038111156104e157fe5b600660009054906101000a900460ff1660038111156104fc57fe5b14610552576040517f08c379a00000000000000000000000000000000000000000000000000000000081526004018080602001828103825260248152602001806114e46024913960400191505060405180910390fd5b60b44260b460045401031161056e574260b46004540103610571565b60005b905090565b600360009054906101000a900473ffffffffffffffffffffffffffffffffffffffff1673ffffffffffffffffffffffffffffffffffffffff163373ffffffffffffffffffffffffffffffffffffffff161461061c576040517f08c379a000000000000000000000000000000000000000000000000000000000815260040180806020018281038252602581526020018061148e6025913960400191505060405180910390fd5b6002600381111561062957fe5b600660009054906101000a900460ff16600381111561064457fe5b1461069a576040517f08c379a000000000000000000000000000000000000000000000000000000000815260040180806020018281038252602c8152602001806113be602c913960400191505060405180910390fd5b6003600660006101000a81548160ff021916908360038111156106b957fe5b0217905550600060028111156106cb57fe5b811415610745576000809054906101000a900473ffffffffffffffffffffffffffffffffffffffff1673ffffffffffffffffffffffffffffffffffffffff166108fc3073ffffffffffffffffffffffffffffffffffffffff16319081150290604051600060405180830381858888f19350505050506107b5565b600160009054906101000a900473ffffffffffffffffffffffffffffffffffffffff1673ffffffffffffffffffffffffffffffffffffffff166108fc3073ffffffffffffffffffffffffffffffffffffffff16319081150290604051600060405180830381858888f19350505050505b81600360009054906101000a900473ffffffffffffffffffffffffffffffffffffffff1673ffffffffffffffffffffffffffffffffffffffff167f394027a5fa6e098a1191094d1719d6929b9abc535fcc0c8f448d6a4e75622276836040518082815260200191505060405180910390a35050565b60b481565b60025481565b6000600381111561084257fe5b600660009054906101000a900460ff16600381111561085d57fe5b146108b3576040517f08c379a00000000000000000000000000000000000000000000000000000000081526004018080602001828103825260258152602001806113626025913960400191505060405180910390fd5b6000809054906101000a900473ffffffffffffffffffffffffffffffffffffffff1673ffffffffffffffffffffffffffffffffffffffff163373ffffffffffffffffffffffffffffffffffffffff16146109825760b4600454420311610981576040517f08c379a00000000000000000000000000000000000000000000000000000000081526004018080602001828103825260208152602001807f5061796572207374696c6c206861732074696d6520746f207265636c61696d2e81525060200191505060405180910390fd5b5b6003600660006101000a81548160ff021916908360038111156109a157fe5b0217905550600160009054906101000a900473ffffffffffffffffffffffffffffffffffffffff1673ffffffffffffffffffffffffffffffffffffffff166108fc6002549081150290604051600060405180830381858888f1935050505050565b60055481565b600360009054906101000a900473ffffffffffffffffffffffffffffffffffffffff1681565b60b481565b600160009054906101000a900473ffffffffffffffffffffffffffffffffffffffff1681565b60016003811115610a6657fe5b600660009054906101000a900460ff166003811115610a8157fe5b14610ad7576040517f08c379a00000000000000000000000000000000000000000000000000000000081526004018080602001828103825260298152602001806114656029913960400191505060405180910390fd5b6000600360009054906101000a900473ffffffffffffffffffffffffffffffffffffffff1673ffffffffffffffffffffffffffffffffffffffff1663c13517e134600280811115610b2457fe5b6040518363ffffffff1660e01b81526004018082815260200180602001828103825260008152602001602001925050506020604051808303818588803b158015610b6d57600080fd5b505af1158015610b81573d6000803e3d6000fd5b50505050506040513d6020811015610b9857600080fd5b810190808051906020019092919050505090506002600660006101000a81548160ff02191690836003811115610bca57fe5b021790555080600360009054906101000a900473ffffffffffffffffffffffffffffffffffffffff1673ffffffffffffffffffffffffffffffffffffffff167f74baab670a4015ab2f1b467c5252a96141a2573f2908e58a92081e80d3cfde3d600080604051808381526020018281526020019250505060405180910390a350565b600380811115610c5857fe5b600660009054906101000a900460ff166003811115610c7357fe5b1415610c7e57600080fd5b6000809054906101000a900473ffffffffffffffffffffffffffffffffffffffff1673ffffffffffffffffffffffffffffffffffffffff163373ffffffffffffffffffffffffffffffffffffffff161480610d265750600160009054906101000a900473ffffffffffffffffffffffffffffffffffffffff1673ffffffffffffffffffffffffffffffffffffffff163373ffffffffffffffffffffffffffffffffffffffff16145b610d7b576040517f08c379a00000000000000000000000000000000000000000000000000000000081526004018080602001828103825260318152602001806114b36031913960400191505060405180910390fd5b3373ffffffffffffffffffffffffffffffffffffffff166000600360009054906101000a900473ffffffffffffffffffffffffffffffffffffffff1673ffffffffffffffffffffffffffffffffffffffff167fdccf2f8b2cc26eafcd61905cba744cff4b81d14740725f6376390dc6298a6a3c846040518080602001828103825283818151815260200191508051906020019080838360005b83811015610e2f578082015181840152602081019050610e14565b50505050905090810190601f168015610e5c5780820380516001836020036101000a031916815260200191505b509250505060405180910390a450565b60006003811115610e7957fe5b600660009054906101000a900460ff166003811115610e9457fe5b1480610ec5575060016003811115610ea857fe5b600660009054906101000a900460ff166003811115610ec357fe5b145b610f1a576040517f08c379a00000000000000000000000000000000000000000000000000000000081526004018080602001828103825260268152602001806113ea6026913960400191505060405180910390fd5b6000809054906101000a900473ffffffffffffffffffffffffffffffffffffffff1673ffffffffffffffffffffffffffffffffffffffff163373ffffffffffffffffffffffffffffffffffffffff1614610fbf576040517f08c379a00000000000000000000000000000000000000000000000000000000081526004018080602001828103825260258152602001806114106025913960400191505060405180910390fd5b60016003811115610fcc57fe5b600660009054906101000a900460ff166003811115610fe757fe5b14156110e15760b460055442031161104a576040517f08c379a00000000000000000000000000000000000000000000000000000000081526004018080602001828103825260308152602001806114356030913960400191505060405180910390fd5b6000809054906101000a900473ffffffffffffffffffffffffffffffffffffffff1673ffffffffffffffffffffffffffffffffffffffff166108fc3073ffffffffffffffffffffffffffffffffffffffff16319081150290604051600060405180830381858888f19350505050506003600660006101000a81548160ff021916908360038111156110d757fe5b0217905550611298565b60b460045442031061115b576040517f08c379a00000000000000000000000000000000000000000000000000000000081526004018080602001828103825260198152602001807f5265636c616d6174696f6e20706572696f6420656e6465642e0000000000000081525060200191505060405180910390fd5b600360009054906101000a900473ffffffffffffffffffffffffffffffffffffffff1673ffffffffffffffffffffffffffffffffffffffff1663f7434ea96040518163ffffffff1660e01b8152600401808060200182810382526000815260200160200191505060206040518083038186803b1580156111da57600080fd5b505afa1580156111ee573d6000803e3d6000fd5b505050506040513d602081101561120457600080fd5b8101908080519060200190929190505050341461126c576040517f08c379a00000000000000000000000000000000000000000000000000000000081526004018080602001828103825260378152602001806113876037913960400191505060405180910390fd5b426005819055506001600660006101000a81548160ff0219169083600381111561129257fe5b02179055505b565b60045481565b6000600160038111156112af57fe5b600660009054906101000a900460ff1660038111156112ca57fe5b1461133d576040517f08c379a00000000000000000000000000000000000000000000000000000000081526004018080602001828103825260188152602001807f46756e647320617265206e6f74207265636c61696d65642e000000000000000081525060200191505060405180910390fd5b60b44260b4600554010311611359574260b4600554010361135c565b60005b90509056fe5472616e73616374696f6e206973206e6f7420696e20696e697469616c207374617475732e43616e2774207265636c61696d2066756e647320776974686f7574206465706f736974696e67206172626974726174696f6e206665652e54686572652073686f756c64206265206469737075746520746f206578656375746520612072756c696e672e5374617475732073686f756c6420626520696e697469616c206f72207265636c61696d65642e4f6e6c79207468652070617965722063616e207265636c61696d207468652066756e64732e5061796565207374696c6c206861732074696d6520746f206465706f736974206172626974726174696f6e206665652e5061796572206469646e2774207265636c61696d2c206e6f7468696e6720746f20646973707574652e4f6e6c79207468652061726269747261746f722063616e206578656375746520746869732e5468697264207061727469657320617265206e6f7420616c6c6f77656420746f207375626d69742065766964656e63652e5472616e73616374696f6e206973206e6f7420696e20696e697469616c2073746174652ea165627a7a72305820698679e0322841f6c2a74763c35d7f67c53521cbb8b338b4133bb3c919841de60029",
  "source": "pragma solidity ^0.5;\n\nimport \"../IArbitrable.sol\";\nimport \"../Arbitrator.sol\";\nimport \"../erc-1497/IEvidence.sol\";\n\ncontract SimpleEscrowWithERC1497 is IArbitrable, IEvidence {\n    address payable public payer = msg.sender;\n    address payable public payee;\n    uint public value;\n    Arbitrator public arbitrator;\n    uint constant public reclamationPeriod = 3 minutes;\n    uint constant public arbitrationFeeDepositPeriod = 3 minutes;\n\n    uint public createdAt;\n    uint public reclaimedAt;\n\n    enum Status {Initial, Reclaimed, Disputed, Resolved}\n    Status public status;\n\n    enum RulingOptions {PayerWins, PayeeWins, Count}\n\n    uint constant metaevidenceID = 0;\n    uint constant evidenceGroupID = 0;\n\n    constructor(address payable _payee, Arbitrator _arbitrator, string memory _metaevidence) public payable {\n        value = msg.value;\n        payee = _payee;\n        arbitrator = _arbitrator;\n        createdAt = now;\n\n        emit MetaEvidence(metaevidenceID, _metaevidence);\n    }\n\n    function releaseFunds() public {\n        require(status == Status.Initial, \"Transaction is not in initial status.\");\n\n        if(msg.sender != payer)\n            require(now - createdAt > reclamationPeriod, \"Payer still has time to reclaim.\");\n\n        status = Status.Resolved;\n        payee.send(value);\n    }\n\n    function reclaimFunds() public payable {\n        require(status == Status.Initial || status == Status.Reclaimed, \"Status should be initial or reclaimed.\");\n        require(msg.sender == payer, \"Only the payer can reclaim the funds.\");\n\n        if(status == Status.Reclaimed){\n            require(now - reclaimedAt > arbitrationFeeDepositPeriod, \"Payee still has time to deposit arbitration fee.\");\n            payer.send(address(this).balance);\n            status = Status.Resolved;\n        }\n        else{\n          require(now - createdAt < reclamationPeriod, \"Reclamation period ended.\");\n          require(msg.value == arbitrator.arbitrationCost(\"\"), \"Can't reclaim funds without depositing arbitration fee.\");\n          reclaimedAt = now;\n          status = Status.Reclaimed;\n        }\n    }\n\n    function depositArbitrationFeeForPayee() public payable {\n        require(status == Status.Reclaimed, \"Payer didn't reclaim, nothing to dispute.\");\n        uint disputeID = arbitrator.createDispute.value(msg.value)(uint(RulingOptions.Count), \"\");\n        status = Status.Disputed;\n        emit Dispute(arbitrator, disputeID, metaevidenceID, evidenceGroupID);\n    }\n\n    function rule(uint _disputeID, uint _ruling) public {\n        require(msg.sender == address(arbitrator), \"Only the arbitrator can execute this.\");\n        require(status == Status.Disputed, \"There should be dispute to execute a ruling.\");\n        status = Status.Resolved;\n        if(_ruling == uint(RulingOptions.PayerWins)) payer.send(address(this).balance);\n        else payee.send(address(this).balance);\n        emit Ruling(arbitrator, _disputeID, _ruling);\n    }\n\n    function submitEvidence(string memory _evidence) public {\n        require(status != Status.Resolved);\n        require(msg.sender == payer || msg.sender == payee, \"Third parties are not allowed to submit evidence.\");\n        emit Evidence(arbitrator, evidenceGroupID, msg.sender, _evidence);\n    }\n\n    function remainingTimeToReclaim() public view returns (uint) {\n        if(status != Status.Initial) revert(\"Transaction is not in initial state.\");\n        return (createdAt + reclamationPeriod - now) > reclamationPeriod ? 0 : (createdAt + reclamationPeriod - now);\n    }\n\n    function remainingTimeToDepositArbitrationFee() public view returns (uint) {\n        if (status != Status.Reclaimed) revert(\"Funds are not reclaimed.\");\n        return (reclaimedAt + arbitrationFeeDepositPeriod - now) > arbitrationFeeDepositPeriod ? 0 : (reclaimedAt + arbitrationFeeDepositPeriod - now);\n    }\n}\n",
  "sourcePath": "/home/u/repos/erc-792/contracts/examples/SimpleEscrowWithERC1497.sol",
  "compiler": {
    "name": "solc",
    "version": "0.5.7+commit.6da8b019.Emscripten.clang"
  },
  "schemaVersion": "3.0.9",
  "updatedAt": "2019-05-25T13:47:15.058Z",
  "devdoc": {
    "methods": {}
  },
  "userdoc": {
    "methods": {}
  }
}