{
  "contractName": "SimpleEscrowWithERC1497",
  "abi": [
    {
      "constant": true,
      "inputs": [],
      "name": "disputed",
      "outputs": [
        {
          "name": "",
          "type": "bool"
        }
      ],
      "payable": false,
      "stateMutability": "view",
      "type": "function"
    },
    {
      "constant": true,
      "inputs": [],
      "name": "payer",
      "outputs": [
        {
          "name": "",
          "type": "address"
        }
      ],
      "payable": false,
      "stateMutability": "view",
      "type": "function"
    },
    {
      "constant": true,
      "inputs": [],
      "name": "arbitrationFeeDepositPeriod",
      "outputs": [
        {
          "name": "",
          "type": "uint256"
        }
      ],
      "payable": false,
      "stateMutability": "view",
      "type": "function"
    },
    {
      "constant": true,
      "inputs": [],
      "name": "resolved",
      "outputs": [
        {
          "name": "",
          "type": "bool"
        }
      ],
      "payable": false,
      "stateMutability": "view",
      "type": "function"
    },
    {
      "constant": true,
      "inputs": [],
      "name": "value",
      "outputs": [
        {
          "name": "",
          "type": "uint256"
        }
      ],
      "payable": false,
      "stateMutability": "view",
      "type": "function"
    },
    {
      "constant": true,
      "inputs": [],
      "name": "reclaimedAt",
      "outputs": [
        {
          "name": "",
          "type": "uint256"
        }
      ],
      "payable": false,
      "stateMutability": "view",
      "type": "function"
    },
    {
      "constant": true,
      "inputs": [],
      "name": "arbitrator",
      "outputs": [
        {
          "name": "",
          "type": "address"
        }
      ],
      "payable": false,
      "stateMutability": "view",
      "type": "function"
    },
    {
      "constant": true,
      "inputs": [],
      "name": "reclamationPeriod",
      "outputs": [
        {
          "name": "",
          "type": "uint256"
        }
      ],
      "payable": false,
      "stateMutability": "view",
      "type": "function"
    },
    {
      "constant": true,
      "inputs": [],
      "name": "payee",
      "outputs": [
        {
          "name": "",
          "type": "address"
        }
      ],
      "payable": false,
      "stateMutability": "view",
      "type": "function"
    },
    {
      "constant": true,
      "inputs": [],
      "name": "awaitingArbitrationFeeFromPayee",
      "outputs": [
        {
          "name": "",
          "type": "bool"
        }
      ],
      "payable": false,
      "stateMutability": "view",
      "type": "function"
    },
    {
      "constant": true,
      "inputs": [],
      "name": "createdAt",
      "outputs": [
        {
          "name": "",
          "type": "uint256"
        }
      ],
      "payable": false,
      "stateMutability": "view",
      "type": "function"
    },
    {
      "inputs": [
        {
          "name": "_payee",
          "type": "address"
        },
        {
          "name": "_arbitrator",
          "type": "address"
        },
        {
          "name": "_metaevidence",
          "type": "string"
        }
      ],
      "payable": true,
      "stateMutability": "payable",
      "type": "constructor"
    },
    {
      "anonymous": false,
      "inputs": [
        {
          "indexed": true,
          "name": "_metaEvidenceID",
          "type": "uint256"
        },
        {
          "indexed": false,
          "name": "_evidence",
          "type": "string"
        }
      ],
      "name": "MetaEvidence",
      "type": "event"
    },
    {
      "anonymous": false,
      "inputs": [
        {
          "indexed": true,
          "name": "_arbitrator",
          "type": "address"
        },
        {
          "indexed": true,
          "name": "_disputeID",
          "type": "uint256"
        },
        {
          "indexed": false,
          "name": "_metaEvidenceID",
          "type": "uint256"
        },
        {
          "indexed": false,
          "name": "_evidenceGroupID",
          "type": "uint256"
        }
      ],
      "name": "Dispute",
      "type": "event"
    },
    {
      "anonymous": false,
      "inputs": [
        {
          "indexed": true,
          "name": "_arbitrator",
          "type": "address"
        },
        {
          "indexed": true,
          "name": "_evidenceGroupID",
          "type": "uint256"
        },
        {
          "indexed": true,
          "name": "_party",
          "type": "address"
        },
        {
          "indexed": false,
          "name": "_evidence",
          "type": "string"
        }
      ],
      "name": "Evidence",
      "type": "event"
    },
    {
      "anonymous": false,
      "inputs": [
        {
          "indexed": true,
          "name": "_arbitrator",
          "type": "address"
        },
        {
          "indexed": true,
          "name": "_disputeID",
          "type": "uint256"
        },
        {
          "indexed": false,
          "name": "_ruling",
          "type": "uint256"
        }
      ],
      "name": "Ruling",
      "type": "event"
    },
    {
      "constant": false,
      "inputs": [],
      "name": "releaseFunds",
      "outputs": [],
      "payable": false,
      "stateMutability": "nonpayable",
      "type": "function"
    },
    {
      "constant": false,
      "inputs": [],
      "name": "reclaimFunds",
      "outputs": [],
      "payable": true,
      "stateMutability": "payable",
      "type": "function"
    },
    {
      "constant": false,
      "inputs": [],
      "name": "depositArbitrationFeeForPayee",
      "outputs": [],
      "payable": true,
      "stateMutability": "payable",
      "type": "function"
    },
    {
      "constant": false,
      "inputs": [
        {
          "name": "_disputeID",
          "type": "uint256"
        },
        {
          "name": "_ruling",
          "type": "uint256"
        }
      ],
      "name": "rule",
      "outputs": [],
      "payable": false,
      "stateMutability": "nonpayable",
      "type": "function"
    },
    {
      "constant": false,
      "inputs": [
        {
          "name": "_evidence",
          "type": "string"
        }
      ],
      "name": "submitEvidence",
      "outputs": [],
      "payable": false,
      "stateMutability": "nonpayable",
      "type": "function"
    },
    {
      "constant": true,
      "inputs": [],
      "name": "remainingTimeToReclaim",
      "outputs": [
        {
          "name": "",
          "type": "uint256"
        }
      ],
      "payable": false,
      "stateMutability": "view",
      "type": "function"
    },
    {
      "constant": true,
      "inputs": [],
      "name": "remainingTimeToDepositArbitrationFee",
      "outputs": [
        {
          "name": "",
          "type": "uint256"
        }
      ],
      "payable": false,
      "stateMutability": "view",
      "type": "function"
    }
  ],
  "bytecode": "0x6080604052336000806101000a81548173ffffffffffffffffffffffffffffffffffffffff021916908373ffffffffffffffffffffffffffffffffffffffff1602179055506040516117dd3803806117dd8339810180604052606081101561006657600080fd5b810190808051906020019092919080519060200190929190805164010000000081111561009257600080fd5b828101905060208101848111156100a857600080fd5b81518560018202830111640100000000821117156100c557600080fd5b50509291905050503460028190555082600160006101000a81548173ffffffffffffffffffffffffffffffffffffffff021916908373ffffffffffffffffffffffffffffffffffffffff16021790555081600360006101000a81548173ffffffffffffffffffffffffffffffffffffffff021916908373ffffffffffffffffffffffffffffffffffffffff1602179055504260048190555060007f61606860eb6c87306811e2695215385101daab53bd6ab4e9f9049aead9363c7d826040518080602001828103825283818151815260200191508051906020019080838360005b838110156101c15780820151818401526020810190506101a6565b50505050905090810190601f1680156101ee5780820380516001836020036101000a031916815260200191505b509250505060405180910390a25050506115d08061020d6000396000f3fe6080604052600436106100fc576000357c0100000000000000000000000000000000000000000000000000000000900463ffffffff1680630695c46c14610101578063123119cd1461013057806322c500a014610187578063311a6c56146101b2578063345a47ea146101f75780633f6fa655146102225780633fa4f2451461025157806369d895751461027c5780636b0aac71146102935780636cc6cde1146102be578063762b829514610315578063ae90b21314610340578063b6844f1314610397578063b8343795146103a1578063bac91e2e146103d0578063cce4bd5214610498578063cf09e0d0146104a2578063f7e1aafd146104cd575b600080fd5b34801561010d57600080fd5b506101166104f8565b604051808215151515815260200191505060405180910390f35b34801561013c57600080fd5b5061014561050b565b604051808273ffffffffffffffffffffffffffffffffffffffff1673ffffffffffffffffffffffffffffffffffffffff16815260200191505060405180910390f35b34801561019357600080fd5b5061019c610530565b6040518082815260200191505060405180910390f35b3480156101be57600080fd5b506101f5600480360360408110156101d557600080fd5b81019080803590602001909291908035906020019092919050505061053f565b005b34801561020357600080fd5b5061020c6108e0565b6040518082815260200191505060405180910390f35b34801561022e57600080fd5b506102376108e5565b604051808215151515815260200191505060405180910390f35b34801561025d57600080fd5b506102666108f8565b6040518082815260200191505060405180910390f35b34801561028857600080fd5b506102916108fe565b005b34801561029f57600080fd5b506102a8610af0565b6040518082815260200191505060405180910390f35b3480156102ca57600080fd5b506102d3610af6565b604051808273ffffffffffffffffffffffffffffffffffffffff1673ffffffffffffffffffffffffffffffffffffffff16815260200191505060405180910390f35b34801561032157600080fd5b5061032a610b1c565b6040518082815260200191505060405180910390f35b34801561034c57600080fd5b50610355610b21565b604051808273ffffffffffffffffffffffffffffffffffffffff1673ffffffffffffffffffffffffffffffffffffffff16815260200191505060405180910390f35b61039f610b47565b005b3480156103ad57600080fd5b506103b6610e79565b604051808215151515815260200191505060405180910390f35b3480156103dc57600080fd5b50610496600480360360208110156103f357600080fd5b810190808035906020019064010000000081111561041057600080fd5b82018360208201111561042257600080fd5b8035906020019184600183028401116401000000008311171561044457600080fd5b91908080601f016020809104026020016040519081016040528093929190818152602001838380828437600081840152601f19601f820116905080830192505050505050509192919290505050610e8c565b005b6104a06110bf565b005b3480156104ae57600080fd5b506104b761158f565b6040518082815260200191505060405180910390f35b3480156104d957600080fd5b506104e2611595565b6040518082815260200191505060405180910390f35b600560009054906101000a900460ff1681565b6000809054906101000a900473ffffffffffffffffffffffffffffffffffffffff1681565b60004260b46004540103905090565b600360009054906101000a900473ffffffffffffffffffffffffffffffffffffffff1673ffffffffffffffffffffffffffffffffffffffff163373ffffffffffffffffffffffffffffffffffffffff1614151561062a576040517f08c379a00000000000000000000000000000000000000000000000000000000081526004018080602001828103825260258152602001807f4f6e6c79207468652061726269747261746f722063616e20657865637574652081526020017f746869732e00000000000000000000000000000000000000000000000000000081525060400191505060405180910390fd5b600560019054906101000a900460ff161515156106af576040517f08c379a00000000000000000000000000000000000000000000000000000000081526004018080602001828103825260108152602001807f416c7265616479207265736f6c7665640000000000000000000000000000000081525060200191505060405180910390fd5b600560009054906101000a900460ff161515610759576040517f08c379a000000000000000000000000000000000000000000000000000000000815260040180806020018281038252602c8152602001807f54686572652073686f756c64206265206469737075746520746f20657865637581526020017f746520612072756c696e672e000000000000000000000000000000000000000081525060400191505060405180910390fd5b6001600560016101000a81548160ff0219169083151502179055506000600281111561078157fe5b8114156107fb576000809054906101000a900473ffffffffffffffffffffffffffffffffffffffff1673ffffffffffffffffffffffffffffffffffffffff166108fc3073ffffffffffffffffffffffffffffffffffffffff16319081150290604051600060405180830381858888f193505050505061086b565b600160009054906101000a900473ffffffffffffffffffffffffffffffffffffffff1673ffffffffffffffffffffffffffffffffffffffff166108fc3073ffffffffffffffffffffffffffffffffffffffff16319081150290604051600060405180830381858888f19350505050505b81600360009054906101000a900473ffffffffffffffffffffffffffffffffffffffff1673ffffffffffffffffffffffffffffffffffffffff167f394027a5fa6e098a1191094d1719d6929b9abc535fcc0c8f448d6a4e75622276836040518082815260200191505060405180910390a35050565b60b481565b600560019054906101000a900460ff1681565b60025481565b600560019054906101000a900460ff16151515610983576040517f08c379a00000000000000000000000000000000000000000000000000000000081526004018080602001828103825260118152602001807f416c7265616479207265736f6c7665642e00000000000000000000000000000081525060200191505060405180910390fd5b60006006541415156109fd576040517f08c379a000000000000000000000000000000000000000000000000000000000815260040180806020018281038252601a8152602001807f5061796572207265636c61696d6564207468652066756e64732e00000000000081525060200191505060405180910390fd5b60b46004544203111515610a79576040517f08c379a00000000000000000000000000000000000000000000000000000000081526004018080602001828103825260208152602001807f5061796572207374696c6c206861732074696d6520746f207265636c61696d2e81525060200191505060405180910390fd5b6001600560016101000a81548160ff021916908315150217905550600160009054906101000a900473ffffffffffffffffffffffffffffffffffffffff1673ffffffffffffffffffffffffffffffffffffffff166108fc6002549081150290604051600060405180830381858888f1935050505050565b60065481565b600360009054906101000a900473ffffffffffffffffffffffffffffffffffffffff1681565b60b481565b600160009054906101000a900473ffffffffffffffffffffffffffffffffffffffff1681565b600560019054906101000a900460ff16151515610bcc576040517f08c379a00000000000000000000000000000000000000000000000000000000081526004018080602001828103825260118152602001807f416c7265616479207265736f6c7665642e00000000000000000000000000000081525060200191505060405180910390fd5b600560009054906101000a900460ff16151515610c51576040517f08c379a00000000000000000000000000000000000000000000000000000000081526004018080602001828103825260138152602001807f5468657265206973206120646973707574652e0000000000000000000000000081525060200191505060405180910390fd5b6000600654111515610cf1576040517f08c379a00000000000000000000000000000000000000000000000000000000081526004018080602001828103825260298152602001807f5061796572206469646e2774207265636c61696d2c206e6f7468696e6720746f81526020017f20646973707574652e000000000000000000000000000000000000000000000081525060400191505060405180910390fd5b6000600360009054906101000a900473ffffffffffffffffffffffffffffffffffffffff1673ffffffffffffffffffffffffffffffffffffffff1663c13517e134600280811115610d3e57fe5b6040518363ffffffff167c01000000000000000000000000000000000000000000000000000000000281526004018082815260200180602001828103825260008152602001602001925050506020604051808303818588803b158015610da357600080fd5b505af1158015610db7573d6000803e3d6000fd5b50505050506040513d6020811015610dce57600080fd5b810190808051906020019092919050505090506001600560006101000a81548160ff02191690831515021790555080600360009054906101000a900473ffffffffffffffffffffffffffffffffffffffff1673ffffffffffffffffffffffffffffffffffffffff167f74baab670a4015ab2f1b467c5252a96141a2573f2908e58a92081e80d3cfde3d600080604051808381526020018281526020019250505060405180910390a350565b600560029054906101000a900460ff1681565b6000809054906101000a900473ffffffffffffffffffffffffffffffffffffffff1673ffffffffffffffffffffffffffffffffffffffff163373ffffffffffffffffffffffffffffffffffffffff161480610f345750600160009054906101000a900473ffffffffffffffffffffffffffffffffffffffff1673ffffffffffffffffffffffffffffffffffffffff163373ffffffffffffffffffffffffffffffffffffffff16145b1515610fce576040517f08c379a00000000000000000000000000000000000000000000000000000000081526004018080602001828103825260318152602001807f5468697264207061727469657320617265206e6f7420616c6c6f77656420746f81526020017f207375626d69742065766964656e63652e00000000000000000000000000000081525060400191505060405180910390fd5b3373ffffffffffffffffffffffffffffffffffffffff166000600360009054906101000a900473ffffffffffffffffffffffffffffffffffffffff1673ffffffffffffffffffffffffffffffffffffffff167fdccf2f8b2cc26eafcd61905cba744cff4b81d14740725f6376390dc6298a6a3c846040518080602001828103825283818151815260200191508051906020019080838360005b83811015611082578082015181840152602081019050611067565b50505050905090810190601f1680156110af5780820380516001836020036101000a031916815260200191505b509250505060405180910390a450565b600560019054906101000a900460ff16151515611144576040517f08c379a00000000000000000000000000000000000000000000000000000000081526004018080602001828103825260118152602001807f416c7265616479207265736f6c7665642e00000000000000000000000000000081525060200191505060405180910390fd5b600560009054906101000a900460ff161515156111c9576040517f08c379a00000000000000000000000000000000000000000000000000000000081526004018080602001828103825260138152602001807f5468657265206973206120646973707574652e0000000000000000000000000081525060200191505060405180910390fd5b6000809054906101000a900473ffffffffffffffffffffffffffffffffffffffff1673ffffffffffffffffffffffffffffffffffffffff163373ffffffffffffffffffffffffffffffffffffffff161415156112b3576040517f08c379a00000000000000000000000000000000000000000000000000000000081526004018080602001828103825260258152602001807f4f6e6c79207468652070617965722063616e207265636c61696d20746865206681526020017f756e64732e00000000000000000000000000000000000000000000000000000081525060400191505060405180910390fd5b600560029054906101000a900460ff16156113f85760b4600654420311151561136a576040517f08c379a00000000000000000000000000000000000000000000000000000000081526004018080602001828103825260308152602001807f5061796565207374696c6c206861732074696d6520746f206465706f7369742081526020017f6172626974726174696f6e206665652e0000000000000000000000000000000081525060400191505060405180910390fd5b6000809054906101000a900473ffffffffffffffffffffffffffffffffffffffff1673ffffffffffffffffffffffffffffffffffffffff166108fc3073ffffffffffffffffffffffffffffffffffffffff16319081150290604051600060405180830381858888f19350505050506001600560016101000a81548160ff02191690831515021790555061158d565b600360009054906101000a900473ffffffffffffffffffffffffffffffffffffffff1673ffffffffffffffffffffffffffffffffffffffff1663f7434ea96040518163ffffffff167c0100000000000000000000000000000000000000000000000000000000028152600401808060200182810382526000815260200160200191505060206040518083038186803b15801561149357600080fd5b505afa1580156114a7573d6000803e3d6000fd5b505050506040513d60208110156114bd57600080fd5b81019080805190602001909291905050503414151561156a576040517f08c379a00000000000000000000000000000000000000000000000000000000081526004018080602001828103825260378152602001807f43616e2774207265636c61696d2066756e647320776974686f7574206465706f81526020017f736974696e67206172626974726174696f6e206665652e00000000000000000081525060400191505060405180910390fd5b426006819055506001600560026101000a81548160ff0219169083151502179055505b565b60045481565b60004260b4600654010390509056fea165627a7a723058208ba594b0e2a09cbf98c08ec2ecd656ec2e03156a4347c18435e747d80bf4a59d0029",
  "source": "pragma solidity ^0.5;\n\nimport \"../IArbitrable.sol\";\nimport \"../Arbitrator.sol\";\nimport \"../erc-1497/IEvidence.sol\";\n\ncontract SimpleEscrowWithERC1497 is IArbitrable, IEvidence {\n    address payable public payer = msg.sender;\n    address payable public payee;\n    uint public value;\n    Arbitrator public arbitrator;\n    uint constant public reclamationPeriod = 3 minutes;\n    uint constant public arbitrationFeeDepositPeriod = 3 minutes;\n    uint public createdAt;\n\n    bool public disputed;\n    bool public resolved;\n\n    bool public awaitingArbitrationFeeFromPayee;\n    uint public reclaimedAt;\n\n\n    enum RulingOptions {PayerWins, PayeeWins, Count}\n\n    uint constant metaevidenceID = 0;\n    uint constant evidenceGroupID = 0;\n\n    constructor(address payable _payee, Arbitrator _arbitrator, string memory _metaevidence) public payable {\n        value = msg.value;\n        payee = _payee;\n        arbitrator = _arbitrator;\n        createdAt = now;\n\n        emit MetaEvidence(metaevidenceID, _metaevidence);\n    }\n\n    function releaseFunds() public {\n        require(!resolved, \"Already resolved.\");\n        require(reclaimedAt == 0, \"Payer reclaimed the funds.\");\n        require(now - createdAt > reclamationPeriod, \"Payer still has time to reclaim.\");\n\n        resolved = true;\n        payee.send(value);\n    }\n\n    function reclaimFunds() public payable {\n        require(!resolved, \"Already resolved.\");\n        require(!disputed, \"There is a dispute.\");\n        require(msg.sender == payer, \"Only the payer can reclaim the funds.\");\n\n        if(awaitingArbitrationFeeFromPayee){\n            require(now - reclaimedAt > arbitrationFeeDepositPeriod, \"Payee still has time to deposit arbitration fee.\");\n            payer.send(address(this).balance);\n            resolved = true;\n        }\n        else{\n          require(msg.value == arbitrator.arbitrationCost(\"\"), \"Can't reclaim funds without depositing arbitration fee.\");\n          reclaimedAt = now;\n          awaitingArbitrationFeeFromPayee = true;\n        }\n    }\n\n    function depositArbitrationFeeForPayee() public payable {\n        require(!resolved, \"Already resolved.\");\n        require(!disputed, \"There is a dispute.\");\n        require(reclaimedAt > 0, \"Payer didn't reclaim, nothing to dispute.\");\n        uint disputeID = arbitrator.createDispute.value(msg.value)(uint(RulingOptions.Count), \"\");\n        disputed = true;\n        emit Dispute(arbitrator, disputeID, metaevidenceID, evidenceGroupID);\n    }\n\n    function rule(uint _disputeID, uint _ruling) public {\n        require(msg.sender == address(arbitrator), \"Only the arbitrator can execute this.\");\n        require(!resolved, \"Already resolved\");\n        require(disputed, \"There should be dispute to execute a ruling.\");\n        resolved = true;\n        if(_ruling == uint(RulingOptions.PayerWins)) payer.send(address(this).balance);\n        else payee.send(address(this).balance);\n        emit Ruling(arbitrator, _disputeID, _ruling);\n    }\n\n    function submitEvidence(string memory _evidence) public {\n        require(msg.sender == payer || msg.sender == payee, \"Third parties are not allowed to submit evidence.\");\n        emit Evidence(arbitrator, evidenceGroupID, msg.sender, _evidence);\n    }\n\n    function remainingTimeToReclaim() public view returns (uint) {\n        return createdAt + reclamationPeriod - now;\n    }\n\n    function remainingTimeToDepositArbitrationFee() public view returns (uint) {\n        return reclaimedAt + arbitrationFeeDepositPeriod - now;\n    }\n}\n",
  "sourcePath": "/home/u/repos/erc-792/contracts/examples/SimpleEscrowWithERC1497.sol",
  "compiler": {
    "name": "solc",
    "version": "0.5.0+commit.1d4f565a.Emscripten.clang"
  },
  "schemaVersion": "3.0.9",
  "updatedAt": "2019-05-21T18:33:07.151Z",
  "devdoc": {
    "methods": {}
  },
  "userdoc": {
    "methods": {}
  }
}